{"abi":[{"type":"constructor","inputs":[{"name":"_maxWhitelistedAddresses","type":"uint8","internalType":"uint8"},{"name":"_dAppSigner","type":"address","internalType":"address"},{"name":"_whitelistUmbrella","type":"address","internalType":"address"}],"stateMutability":"nonpayable"},{"type":"function","name":"_paused","inputs":[],"outputs":[{"name":"","type":"bool","internalType":"bool"}],"stateMutability":"view"},{"type":"function","name":"addAddressToWhitelist","inputs":[{"name":"nonce","type":"uint256","internalType":"uint256"},{"name":"signature","type":"bytes","internalType":"bytes"},{"name":"randomValue","type":"string","internalType":"string"}],"outputs":[],"stateMutability":"nonpayable"},{"type":"function","name":"checkWhitelistUmbrella","inputs":[{"name":"_toCheck","type":"address","internalType":"address"}],"outputs":[{"name":"","type":"bool","internalType":"bool"}],"stateMutability":"view"},{"type":"function","name":"dAppSigner","inputs":[],"outputs":[{"name":"","type":"address","internalType":"address"}],"stateMutability":"view"},{"type":"function","name":"maxWhitelistedAddresses","inputs":[],"outputs":[{"name":"","type":"uint8","internalType":"uint8"}],"stateMutability":"view"},{"type":"function","name":"nonces","inputs":[{"name":"","type":"address","internalType":"address"}],"outputs":[{"name":"","type":"uint256","internalType":"uint256"}],"stateMutability":"view"},{"type":"function","name":"numAddressesWhitelisted","inputs":[],"outputs":[{"name":"","type":"uint8","internalType":"uint8"}],"stateMutability":"view"},{"type":"function","name":"owner","inputs":[],"outputs":[{"name":"","type":"address","internalType":"address"}],"stateMutability":"view"},{"type":"function","name":"removeAddressFromWhitelist","inputs":[{"name":"_address","type":"address","internalType":"address"}],"outputs":[],"stateMutability":"nonpayable"},{"type":"function","name":"renounceOwnership","inputs":[],"outputs":[],"stateMutability":"nonpayable"},{"type":"function","name":"setPaused","inputs":[{"name":"val","type":"bool","internalType":"bool"}],"outputs":[],"stateMutability":"nonpayable"},{"type":"function","name":"transferOwnership","inputs":[{"name":"newOwner","type":"address","internalType":"address"}],"outputs":[],"stateMutability":"nonpayable"},{"type":"function","name":"whitelistUmbrella","inputs":[],"outputs":[{"name":"","type":"address","internalType":"contract IWhitelistUmbrella"}],"stateMutability":"view"},{"type":"function","name":"whitelistedAddresses","inputs":[{"name":"","type":"address","internalType":"address"}],"outputs":[{"name":"","type":"bool","internalType":"bool"}],"stateMutability":"view"},{"type":"event","name":"AddressAddedToWhitelist","inputs":[{"name":"user","type":"address","indexed":true,"internalType":"address"}],"anonymous":false},{"type":"event","name":"OwnershipTransferred","inputs":[{"name":"previousOwner","type":"address","indexed":true,"internalType":"address"},{"name":"newOwner","type":"address","indexed":true,"internalType":"address"}],"anonymous":false},{"type":"error","name":"OwnableInvalidOwner","inputs":[{"name":"owner","type":"address","internalType":"address"}]},{"type":"error","name":"OwnableUnauthorizedAccount","inputs":[{"name":"account","type":"address","internalType":"address"}]}],"bytecode":{"object":"0x608060405234801561001057600080fd5b50604051610d65380380610d6583398101604081905261002f9161011e565b338061005557604051631e4fbdf760e01b81526000600482015260240160405180910390fd5b61005e816100b2565b506000805460ff909416600160a01b0260ff60a01b1990941693909317909255600180546001600160a01b039283166001600160a01b03199182161790915560048054939092169216919091179055610169565b600080546001600160a01b038381166001600160a01b0319831681178455604051919092169283917f8be0079c531659141344cd1fd0a4f28419497f9722a3daafe3b4186f6b6457e09190a35050565b80516001600160a01b038116811461011957600080fd5b919050565b60008060006060848603121561013357600080fd5b835160ff8116811461014457600080fd5b925061015260208501610102565b915061016060408501610102565b90509250925092565b610bed806101786000396000f3fe608060405234801561001057600080fd5b50600436106100ea5760003560e01c80635f6562031161008c5780637ecebe00116100665780637ecebe00146101f65780638da5cb5b14610224578063ea9c491714610235578063f2fde38b1461024857600080fd5b80635f656203146101c8578063715018a6146101db57806371cb421b146101e357600080fd5b806316c61ccc116100c857806316c61ccc14610167578063286dd3f51461017b57806331a721881461018e5780634011d7cd146101b457600080fd5b806306c933d8146100ef57806313a5550c1461012757806316c38b3c14610152575b600080fd5b6101126100fd366004610950565b60036020526000908152604090205460ff1681565b60405190151581526020015b60405180910390f35b60045461013a906001600160a01b031681565b6040516001600160a01b03909116815260200161011e565b61016561016036600461098e565b61025b565b005b60005461011290600160b01b900460ff1681565b610165610189366004610950565b610281565b6000546101a290600160a01b900460ff1681565b60405160ff909116815260200161011e565b6000546101a290600160a81b900460ff1681565b60015461013a906001600160a01b031681565b61016561035b565b6101126101f1366004610950565b61036f565b610216610204366004610950565b60026020526000908152604090205481565b60405190815260200161011e565b6000546001600160a01b031661013a565b610165610243366004610a37565b6103e8565b610165610256366004610950565b6107a4565b6102636107e2565b60008054911515600160b01b0260ff60b01b19909216919091179055565b6102896107e2565b6001600160a01b03811660009081526003602052604090205460ff166103075760405162461bcd60e51b815260206004820152602860248201527f41646472657373206973206e6f742077686974656c697374656420666f7220746044820152673434b99038bab4bd60c11b60648201526084015b60405180910390fd5b6001600160a01b0381166000908152600360205260408120805460ff191690558054600160a81b900460ff1690601561033f83610ae5565b91906101000a81548160ff021916908360ff1602179055505050565b6103636107e2565b61036d600061080f565b565b6004805460405162d9267b60e31b81526001600160a01b0384811693820193909352600092909116906306c933d890602401602060405180830381865afa1580156103be573d6000803e3d6000fd5b505050506040513d601f19601f820116820180604052508101906103e29190610b02565b92915050565b600054600160b01b900460ff16156104375760405162461bcd60e51b815260206004820152601260248201527110dbdb9d1c9858dd081a5cc81c185d5cd95960721b60448201526064016102fe565b3360009081526002602052604090205483146104855760405162461bcd60e51b815260206004820152600d60248201526c496e76616c6964206e6f6e636560981b60448201526064016102fe565b3360009081526002602052604081208054916104a083610b1f565b91905055506000610521333086856040516020016104c19493929190610b38565b60408051601f1981840301815282825280516020918201207f19457468657265756d205369676e6564204d6573736167653a0a33320000000084830152603c8085019190915282518085039091018152605c909301909152815191012090565b6001549091506001600160a01b031661053a828561085f565b6001600160a01b0316146105845760405162461bcd60e51b8152602060048201526011602482015270496e76616c6964207369676e617475726560781b60448201526064016102fe565b3360009081526003602052604090205460ff16156105f65760405162461bcd60e51b815260206004820152602960248201527f4164647265737320616c72656164792077686974656c697374656420666f72206044820152683a3434b99038bab4bd60b91b60648201526084016102fe565b6004805460405162d9267b60e31b815233928101929092526001600160a01b0316906306c933d890602401602060405180830381865afa15801561063e573d6000803e3d6000fd5b505050506040513d601f19601f820116820180604052508101906106629190610b02565b156106c55760405162461bcd60e51b815260206004820152602d60248201527f4164647265737320616c72656164792077686974656c69737465642066726f6d60448201526c020556d6272656c6c61436f727609c1b60648201526084016102fe565b60005460ff600160a01b82048116600160a81b909204161061071d5760405162461bcd60e51b815260206004820152601160248201527015da1a5d195b1a5cdd081a5cc8199d5b1b607a1b60448201526064016102fe565b336000908152600360205260408120805460ff191660011790558054600160a81b900460ff1690601561074f83610b98565b91906101000a81548160ff021916908360ff16021790555050336001600160a01b03167f534d18c8ff24ba5980906d732f3075704749427353734fbbf05d50485643b12460405160405180910390a250505050565b6107ac6107e2565b6001600160a01b0381166107d657604051631e4fbdf760e01b8152600060048201526024016102fe565b6107df8161080f565b50565b6000546001600160a01b0316331461036d5760405163118cdaa760e01b81523360048201526024016102fe565b600080546001600160a01b038381166001600160a01b0319831681178455604051919092169283917f8be0079c531659141344cd1fd0a4f28419497f9722a3daafe3b4186f6b6457e09190a35050565b60008060008061086e856108de565b6040805160008152602081018083528b905260ff8516918101919091526060810183905260808101829052929550909350915060019060a0016020604051602081039080840390855afa1580156108c9573d6000803e3d6000fd5b5050604051601f190151979650505050505050565b600080600083516041146109345760405162461bcd60e51b815260206004820152601860248201527f496e76616c6964207369676e6174757265206c656e677468000000000000000060448201526064016102fe565b5050506020810151604082015160609092015160001a92909190565b60006020828403121561096257600080fd5b81356001600160a01b038116811461097957600080fd5b9392505050565b80151581146107df57600080fd5b6000602082840312156109a057600080fd5b813561097981610980565b634e487b7160e01b600052604160045260246000fd5b600067ffffffffffffffff808411156109dc576109dc6109ab565b604051601f8501601f19908116603f01168101908282118183101715610a0457610a046109ab565b81604052809350858152868686011115610a1d57600080fd5b858560208301376000602087830101525050509392505050565b600080600060608486031215610a4c57600080fd5b83359250602084013567ffffffffffffffff80821115610a6b57600080fd5b818601915086601f830112610a7f57600080fd5b610a8e878335602085016109c1565b93506040860135915080821115610aa457600080fd5b508401601f81018613610ab657600080fd5b610ac5868235602084016109c1565b9150509250925092565b634e487b7160e01b600052601160045260246000fd5b600060ff821680610af857610af8610acf565b6000190192915050565b600060208284031215610b1457600080fd5b815161097981610980565b600060018201610b3157610b31610acf565b5060010190565b60006bffffffffffffffffffffffff19808760601b168352808660601b16601484015250836028830152825160005b81811015610b845760208186018101516048868401015201610b67565b506000920160480191825250949350505050565b600060ff821660ff8103610bae57610bae610acf565b6001019291505056fea2646970667358221220739912054bd0e416379c4965b902a6167936f139395b3329339676c537cef9c064736f6c63430008180033","linkReferences":{}},"methodIdentifiers":{"_paused()":"16c61ccc","addAddressToWhitelist(uint256,bytes,string)":"ea9c4917","checkWhitelistUmbrella(address)":"71cb421b","dAppSigner()":"5f656203","maxWhitelistedAddresses()":"31a72188","nonces(address)":"7ecebe00","numAddressesWhitelisted()":"4011d7cd","owner()":"8da5cb5b","removeAddressFromWhitelist(address)":"286dd3f5","renounceOwnership()":"715018a6","setPaused(bool)":"16c38b3c","transferOwnership(address)":"f2fde38b","whitelistUmbrella()":"13a5550c","whitelistedAddresses(address)":"06c933d8"},"id":3}