{"abi":[{"type":"constructor","inputs":[{"name":"_maxWhitelistedAddresses","type":"uint8","internalType":"uint8"},{"name":"_dAppSigner","type":"address","internalType":"address"}],"stateMutability":"nonpayable"},{"type":"function","name":"_paused","inputs":[],"outputs":[{"name":"","type":"bool","internalType":"bool"}],"stateMutability":"view"},{"type":"function","name":"addAddressToWhitelist","inputs":[{"name":"nonce","type":"uint256","internalType":"uint256"},{"name":"signature","type":"bytes","internalType":"bytes"},{"name":"randomValue","type":"string","internalType":"string"}],"outputs":[],"stateMutability":"nonpayable"},{"type":"function","name":"dAppSigner","inputs":[],"outputs":[{"name":"","type":"address","internalType":"address"}],"stateMutability":"view"},{"type":"function","name":"maxWhitelistedAddresses","inputs":[],"outputs":[{"name":"","type":"uint8","internalType":"uint8"}],"stateMutability":"view"},{"type":"function","name":"nonces","inputs":[{"name":"","type":"address","internalType":"address"}],"outputs":[{"name":"","type":"uint256","internalType":"uint256"}],"stateMutability":"view"},{"type":"function","name":"numAddressesWhitelisted","inputs":[],"outputs":[{"name":"","type":"uint8","internalType":"uint8"}],"stateMutability":"view"},{"type":"function","name":"owner","inputs":[],"outputs":[{"name":"","type":"address","internalType":"address"}],"stateMutability":"view"},{"type":"function","name":"renounceOwnership","inputs":[],"outputs":[],"stateMutability":"nonpayable"},{"type":"function","name":"setPaused","inputs":[{"name":"val","type":"bool","internalType":"bool"}],"outputs":[],"stateMutability":"nonpayable"},{"type":"function","name":"transferOwnership","inputs":[{"name":"newOwner","type":"address","internalType":"address"}],"outputs":[],"stateMutability":"nonpayable"},{"type":"function","name":"whitelistedAddresses","inputs":[{"name":"","type":"address","internalType":"address"}],"outputs":[{"name":"","type":"bool","internalType":"bool"}],"stateMutability":"view"},{"type":"event","name":"AddressAddedToWhitelist","inputs":[{"name":"user","type":"address","indexed":true,"internalType":"address"}],"anonymous":false},{"type":"event","name":"OwnershipTransferred","inputs":[{"name":"previousOwner","type":"address","indexed":true,"internalType":"address"},{"name":"newOwner","type":"address","indexed":true,"internalType":"address"}],"anonymous":false},{"type":"error","name":"OwnableInvalidOwner","inputs":[{"name":"owner","type":"address","internalType":"address"}]},{"type":"error","name":"OwnableUnauthorizedAccount","inputs":[{"name":"account","type":"address","internalType":"address"}]}],"bytecode":{"object":"0x608060405234801561001057600080fd5b50604051610a50380380610a5083398101604081905261002f916100f4565b338061005557604051631e4fbdf760e01b81526000600482015260240160405180910390fd5b61005e816100a4565b506000805460ff909316600160a01b0260ff60a01b1990931692909217909155600180546001600160a01b039092166001600160a01b0319909216919091179055610140565b600080546001600160a01b038381166001600160a01b0319831681178455604051919092169283917f8be0079c531659141344cd1fd0a4f28419497f9722a3daafe3b4186f6b6457e09190a35050565b6000806040838503121561010757600080fd5b825160ff8116811461011857600080fd5b60208401519092506001600160a01b038116811461013557600080fd5b809150509250929050565b6109018061014f6000396000f3fe608060405234801561001057600080fd5b50600436106100a95760003560e01c80635f656203116100715780635f65620314610149578063715018a6146101745780637ecebe001461017c5780638da5cb5b146101aa578063ea9c4917146101bb578063f2fde38b146101ce57600080fd5b806306c933d8146100ae57806316c38b3c146100e657806316c61ccc146100fb57806331a721881461010f5780634011d7cd14610135575b600080fd5b6100d16100bc3660046106a7565b60036020526000908152604090205460ff1681565b60405190151581526020015b60405180910390f35b6100f96100f43660046106d7565b6101e1565b005b6000546100d190600160b01b900460ff1681565b60005461012390600160a01b900460ff1681565b60405160ff90911681526020016100dd565b60005461012390600160a81b900460ff1681565b60015461015c906001600160a01b031681565b6040516001600160a01b0390911681526020016100dd565b6100f9610207565b61019c61018a3660046106a7565b60026020526000908152604090205481565b6040519081526020016100dd565b6000546001600160a01b031661015c565b6100f96101c9366004610785565b61021b565b6100f96101dc3660046106a7565b6104fb565b6101e9610539565b60008054911515600160b01b0260ff60b01b19909216919091179055565b61020f610539565b6102196000610566565b565b600054600160b01b900460ff161561026f5760405162461bcd60e51b815260206004820152601260248201527110dbdb9d1c9858dd081a5cc81c185d5cd95960721b60448201526064015b60405180910390fd5b3360009081526002602052604090205483146102bd5760405162461bcd60e51b815260206004820152600d60248201526c496e76616c6964206e6f6e636560981b6044820152606401610266565b3360009081526002602052604081208054916102d883610833565b91905055506000610359333086856040516020016102f9949392919061084c565b60408051601f1981840301815282825280516020918201207f19457468657265756d205369676e6564204d6573736167653a0a33320000000084830152603c8085019190915282518085039091018152605c909301909152815191012090565b6001549091506001600160a01b031661037282856105b6565b6001600160a01b0316146103bc5760405162461bcd60e51b8152602060048201526011602482015270496e76616c6964207369676e617475726560781b6044820152606401610266565b3360009081526003602052604090205460ff161561041c5760405162461bcd60e51b815260206004820152601b60248201527f4164647265737320616c72656164792077686974656c697374656400000000006044820152606401610266565b60005460ff600160a01b82048116600160a81b90920416106104745760405162461bcd60e51b815260206004820152601160248201527015da1a5d195b1a5cdd081a5cc8199d5b1b607a1b6044820152606401610266565b336000908152600360205260408120805460ff191660011790558054600160a81b900460ff169060156104a6836108ac565b91906101000a81548160ff021916908360ff16021790555050336001600160a01b03167f534d18c8ff24ba5980906d732f3075704749427353734fbbf05d50485643b12460405160405180910390a250505050565b610503610539565b6001600160a01b03811661052d57604051631e4fbdf760e01b815260006004820152602401610266565b61053681610566565b50565b6000546001600160a01b031633146102195760405163118cdaa760e01b8152336004820152602401610266565b600080546001600160a01b038381166001600160a01b0319831681178455604051919092169283917f8be0079c531659141344cd1fd0a4f28419497f9722a3daafe3b4186f6b6457e09190a35050565b6000806000806105c585610635565b6040805160008152602081018083528b905260ff8516918101919091526060810183905260808101829052929550909350915060019060a0016020604051602081039080840390855afa158015610620573d6000803e3d6000fd5b5050604051601f190151979650505050505050565b6000806000835160411461068b5760405162461bcd60e51b815260206004820152601860248201527f496e76616c6964207369676e6174757265206c656e67746800000000000000006044820152606401610266565b5050506020810151604082015160609092015160001a92909190565b6000602082840312156106b957600080fd5b81356001600160a01b03811681146106d057600080fd5b9392505050565b6000602082840312156106e957600080fd5b813580151581146106d057600080fd5b634e487b7160e01b600052604160045260246000fd5b600067ffffffffffffffff8084111561072a5761072a6106f9565b604051601f8501601f19908116603f01168101908282118183101715610752576107526106f9565b8160405280935085815286868601111561076b57600080fd5b858560208301376000602087830101525050509392505050565b60008060006060848603121561079a57600080fd5b83359250602084013567ffffffffffffffff808211156107b957600080fd5b818601915086601f8301126107cd57600080fd5b6107dc8783356020850161070f565b935060408601359150808211156107f257600080fd5b508401601f8101861361080457600080fd5b6108138682356020840161070f565b9150509250925092565b634e487b7160e01b600052601160045260246000fd5b6000600182016108455761084561081d565b5060010190565b60006bffffffffffffffffffffffff19808760601b168352808660601b16601484015250836028830152825160005b81811015610898576020818601810151604886840101520161087b565b506000920160480191825250949350505050565b600060ff821660ff81036108c2576108c261081d565b6001019291505056fea26469706673582212201f70abdfe604225c904b179d34c8487a1116ddb68c7700e6feeeeb07389bcc0f64736f6c63430008180033","linkReferences":{}},"methodIdentifiers":{"_paused()":"16c61ccc","addAddressToWhitelist(uint256,bytes,string)":"ea9c4917","dAppSigner()":"5f656203","maxWhitelistedAddresses()":"31a72188","nonces(address)":"7ecebe00","numAddressesWhitelisted()":"4011d7cd","owner()":"8da5cb5b","renounceOwnership()":"715018a6","setPaused(bool)":"16c38b3c","transferOwnership(address)":"f2fde38b","whitelistedAddresses(address)":"06c933d8"},"id":4}