{"abi":[{"type":"function","name":"setWhitelisted","inputs":[{"name":"_address","type":"address","internalType":"address"},{"name":"_status","type":"bool","internalType":"bool"}],"outputs":[],"stateMutability":"nonpayable"},{"type":"function","name":"whitelistedAddresses","inputs":[{"name":"_toCheck","type":"address","internalType":"address"}],"outputs":[{"name":"","type":"bool","internalType":"bool"}],"stateMutability":"view"},{"type":"function","name":"whitelistedAddressesMapping","inputs":[{"name":"","type":"address","internalType":"address"}],"outputs":[{"name":"","type":"bool","internalType":"bool"}],"stateMutability":"view"}],"bytecode":{"object":"0x608060405234801561001057600080fd5b50610194806100206000396000f3fe608060405234801561001057600080fd5b50600436106100415760003560e01c806306c933d814610046578063671b84db146100865780639281aa0b146100a9575b600080fd5b610072610054366004610100565b6001600160a01b031660009081526020819052604090205460ff1690565b604051901515815260200160405180910390f35b610072610094366004610100565b60006020819052908152604090205460ff1681565b6100e26100b7366004610122565b6001600160a01b03919091166000908152602081905260409020805460ff1916911515919091179055565b005b80356001600160a01b03811681146100fb57600080fd5b919050565b60006020828403121561011257600080fd5b61011b826100e4565b9392505050565b6000806040838503121561013557600080fd5b61013e836100e4565b91506020830135801515811461015357600080fd5b80915050925092905056fea264697066735822122070c762f3b068f96bd93ffae82806adbaa5092b3e5f17571bbd08e517c2ebc8a564736f6c63430008180033","linkReferences":{}},"methodIdentifiers":{"setWhitelisted(address,bool)":"9281aa0b","whitelistedAddresses(address)":"06c933d8","whitelistedAddressesMapping(address)":"671b84db"},"id":2}