{"abi":[{"type":"constructor","inputs":[{"name":"_dAppSigner","type":"address","internalType":"address"}],"stateMutability":"nonpayable"},{"type":"function","name":"approve","inputs":[{"name":"to","type":"address","internalType":"address"},{"name":"tokenId","type":"uint256","internalType":"uint256"}],"outputs":[],"stateMutability":"nonpayable"},{"type":"function","name":"balanceOf","inputs":[{"name":"owner","type":"address","internalType":"address"}],"outputs":[{"name":"","type":"uint256","internalType":"uint256"}],"stateMutability":"view"},{"type":"function","name":"dAppSigner","inputs":[],"outputs":[{"name":"","type":"address","internalType":"address"}],"stateMutability":"view"},{"type":"function","name":"getApproved","inputs":[{"name":"tokenId","type":"uint256","internalType":"uint256"}],"outputs":[{"name":"","type":"address","internalType":"address"}],"stateMutability":"view"},{"type":"function","name":"isApprovedForAll","inputs":[{"name":"owner","type":"address","internalType":"address"},{"name":"operator","type":"address","internalType":"address"}],"outputs":[{"name":"","type":"bool","internalType":"bool"}],"stateMutability":"view"},{"type":"function","name":"mintNFT","inputs":[{"name":"recipient","type":"address","internalType":"address"},{"name":"zodiacSign","type":"string","internalType":"string"},{"name":"svgCore","type":"string","internalType":"string"},{"name":"nonce","type":"uint256","internalType":"uint256"},{"name":"signature","type":"bytes","internalType":"bytes"},{"name":"randomValue","type":"string","internalType":"string"}],"outputs":[{"name":"","type":"uint256","internalType":"uint256"}],"stateMutability":"nonpayable"},{"type":"function","name":"name","inputs":[],"outputs":[{"name":"","type":"string","internalType":"string"}],"stateMutability":"view"},{"type":"function","name":"nonces","inputs":[{"name":"","type":"address","internalType":"address"}],"outputs":[{"name":"","type":"uint256","internalType":"uint256"}],"stateMutability":"view"},{"type":"function","name":"owner","inputs":[],"outputs":[{"name":"","type":"address","internalType":"address"}],"stateMutability":"view"},{"type":"function","name":"ownerOf","inputs":[{"name":"tokenId","type":"uint256","internalType":"uint256"}],"outputs":[{"name":"","type":"address","internalType":"address"}],"stateMutability":"view"},{"type":"function","name":"renounceOwnership","inputs":[],"outputs":[],"stateMutability":"nonpayable"},{"type":"function","name":"safeTransferFrom","inputs":[{"name":"from","type":"address","internalType":"address"},{"name":"to","type":"address","internalType":"address"},{"name":"tokenId","type":"uint256","internalType":"uint256"}],"outputs":[],"stateMutability":"nonpayable"},{"type":"function","name":"safeTransferFrom","inputs":[{"name":"from","type":"address","internalType":"address"},{"name":"to","type":"address","internalType":"address"},{"name":"tokenId","type":"uint256","internalType":"uint256"},{"name":"data","type":"bytes","internalType":"bytes"}],"outputs":[],"stateMutability":"nonpayable"},{"type":"function","name":"setApprovalForAll","inputs":[{"name":"operator","type":"address","internalType":"address"},{"name":"approved","type":"bool","internalType":"bool"}],"outputs":[],"stateMutability":"nonpayable"},{"type":"function","name":"setDAppSigner","inputs":[{"name":"_dAppSigner","type":"address","internalType":"address"}],"outputs":[],"stateMutability":"nonpayable"},{"type":"function","name":"supportsInterface","inputs":[{"name":"interfaceId","type":"bytes4","internalType":"bytes4"}],"outputs":[{"name":"","type":"bool","internalType":"bool"}],"stateMutability":"view"},{"type":"function","name":"symbol","inputs":[],"outputs":[{"name":"","type":"string","internalType":"string"}],"stateMutability":"view"},{"type":"function","name":"tokenURI","inputs":[{"name":"tokenId","type":"uint256","internalType":"uint256"}],"outputs":[{"name":"","type":"string","internalType":"string"}],"stateMutability":"view"},{"type":"function","name":"transferFrom","inputs":[{"name":"from","type":"address","internalType":"address"},{"name":"to","type":"address","internalType":"address"},{"name":"tokenId","type":"uint256","internalType":"uint256"}],"outputs":[],"stateMutability":"nonpayable"},{"type":"function","name":"transferOwnership","inputs":[{"name":"newOwner","type":"address","internalType":"address"}],"outputs":[],"stateMutability":"nonpayable"},{"type":"event","name":"Approval","inputs":[{"name":"owner","type":"address","indexed":true,"internalType":"address"},{"name":"approved","type":"address","indexed":true,"internalType":"address"},{"name":"tokenId","type":"uint256","indexed":true,"internalType":"uint256"}],"anonymous":false},{"type":"event","name":"ApprovalForAll","inputs":[{"name":"owner","type":"address","indexed":true,"internalType":"address"},{"name":"operator","type":"address","indexed":true,"internalType":"address"},{"name":"approved","type":"bool","indexed":false,"internalType":"bool"}],"anonymous":false},{"type":"event","name":"BatchMetadataUpdate","inputs":[{"name":"_fromTokenId","type":"uint256","indexed":false,"internalType":"uint256"},{"name":"_toTokenId","type":"uint256","indexed":false,"internalType":"uint256"}],"anonymous":false},{"type":"event","name":"MetadataUpdate","inputs":[{"name":"_tokenId","type":"uint256","indexed":false,"internalType":"uint256"}],"anonymous":false},{"type":"event","name":"NFTMinted","inputs":[{"name":"tokenId","type":"uint256","indexed":false,"internalType":"uint256"},{"name":"recipient","type":"address","indexed":false,"internalType":"address"}],"anonymous":false},{"type":"event","name":"OwnershipTransferred","inputs":[{"name":"previousOwner","type":"address","indexed":true,"internalType":"address"},{"name":"newOwner","type":"address","indexed":true,"internalType":"address"}],"anonymous":false},{"type":"event","name":"Transfer","inputs":[{"name":"from","type":"address","indexed":true,"internalType":"address"},{"name":"to","type":"address","indexed":true,"internalType":"address"},{"name":"tokenId","type":"uint256","indexed":true,"internalType":"uint256"}],"anonymous":false},{"type":"error","name":"ERC721IncorrectOwner","inputs":[{"name":"sender","type":"address","internalType":"address"},{"name":"tokenId","type":"uint256","internalType":"uint256"},{"name":"owner","type":"address","internalType":"address"}]},{"type":"error","name":"ERC721InsufficientApproval","inputs":[{"name":"operator","type":"address","internalType":"address"},{"name":"tokenId","type":"uint256","internalType":"uint256"}]},{"type":"error","name":"ERC721InvalidApprover","inputs":[{"name":"approver","type":"address","internalType":"address"}]},{"type":"error","name":"ERC721InvalidOperator","inputs":[{"name":"operator","type":"address","internalType":"address"}]},{"type":"error","name":"ERC721InvalidOwner","inputs":[{"name":"owner","type":"address","internalType":"address"}]},{"type":"error","name":"ERC721InvalidReceiver","inputs":[{"name":"receiver","type":"address","internalType":"address"}]},{"type":"error","name":"ERC721InvalidSender","inputs":[{"name":"sender","type":"address","internalType":"address"}]},{"type":"error","name":"ERC721NonexistentToken","inputs":[{"name":"tokenId","type":"uint256","internalType":"uint256"}]},{"type":"error","name":"OwnableInvalidOwner","inputs":[{"name":"owner","type":"address","internalType":"address"}]},{"type":"error","name":"OwnableUnauthorizedAccount","inputs":[{"name":"account","type":"address","internalType":"address"}]}],"bytecode":{"object":"0x60806040523480156200001157600080fd5b5060405162001edc38038062001edc83398101604081905262000034916200014e565b336040518060400160405280600d81526020016c121bdc9bdcd8dbdc1948139195609a1b815250604051806040016040528060048152602001631213919560e21b815250816000908162000089919062000227565b50600162000098828262000227565b5050506001600160a01b038116620000ca57604051631e4fbdf760e01b81526000600482015260240160405180910390fd5b620000d581620000fc565b50600980546001600160a01b0319166001600160a01b0392909216919091179055620002f3565b600780546001600160a01b038381166001600160a01b0319831681179093556040519116919082907f8be0079c531659141344cd1fd0a4f28419497f9722a3daafe3b4186f6b6457e090600090a35050565b6000602082840312156200016157600080fd5b81516001600160a01b03811681146200017957600080fd5b9392505050565b634e487b7160e01b600052604160045260246000fd5b600181811c90821680620001ab57607f821691505b602082108103620001cc57634e487b7160e01b600052602260045260246000fd5b50919050565b601f82111562000222576000816000526020600020601f850160051c81016020861015620001fd5750805b601f850160051c820191505b818110156200021e5782815560010162000209565b5050505b505050565b81516001600160401b0381111562000243576200024362000180565b6200025b8162000254845462000196565b84620001d2565b602080601f8311600181146200029357600084156200027a5750858301515b600019600386901b1c1916600185901b1785556200021e565b600085815260208120601f198616915b82811015620002c457888601518255948401946001909101908401620002a3565b5085821015620002e35787850151600019600388901b60f8161c191681555b5050505050600190811b01905550565b611bd980620003036000396000f3fe608060405234801561001057600080fd5b506004361061012c5760003560e01c806370a08231116100ad578063a22cb46511610071578063a22cb46514610282578063b88d4fde14610295578063c87b56dd146102a8578063e985e9c5146102bb578063f2fde38b146102ce57600080fd5b806370a082311461022e578063715018a6146102415780637ecebe00146102495780638da5cb5b1461026957806395d89b411461027a57600080fd5b80634143c1aa116100f45780634143c1aa146101c157806342842e0e146101d457806352b29265146101e75780635f656203146102085780636352211e1461021b57600080fd5b806301ffc9a71461013157806306fdde0314610159578063081812fc1461016e578063095ea7b31461019957806323b872dd146101ae575b600080fd5b61014461013f3660046113c7565b6102e1565b60405190151581526020015b60405180910390f35b61016161030c565b6040516101509190611434565b61018161017c366004611447565b61039e565b6040516001600160a01b039091168152602001610150565b6101ac6101a736600461147c565b6103c7565b005b6101ac6101bc3660046114a6565b6103d6565b6101ac6101cf3660046114e2565b610466565b6101ac6101e23660046114a6565b610490565b6101fa6101f53660046115a0565b6104b0565b604051908152602001610150565b600954610181906001600160a01b031681565b610181610229366004611447565b61070e565b6101fa61023c3660046114e2565b610719565b6101ac610761565b6101fa6102573660046114e2565b600a6020526000908152604090205481565b6007546001600160a01b0316610181565b610161610775565b6101ac610290366004611666565b610784565b6101ac6102a33660046116a2565b61078f565b6101616102b6366004611447565b6107a6565b6101446102c936600461170a565b6108b7565b6101ac6102dc3660046114e2565b6108e5565b60006001600160e01b03198216632483248360e11b1480610306575061030682610923565b92915050565b60606000805461031b9061173d565b80601f01602080910402602001604051908101604052809291908181526020018280546103479061173d565b80156103945780601f1061036957610100808354040283529160200191610394565b820191906000526020600020905b81548152906001019060200180831161037757829003601f168201915b5050505050905090565b60006103a982610973565b506000828152600460205260409020546001600160a01b0316610306565b6103d28282336109ac565b5050565b6001600160a01b03821661040557604051633250574960e11b8152600060048201526024015b60405180910390fd5b60006104128383336109b9565b9050836001600160a01b0316816001600160a01b031614610460576040516364283d7b60e01b81526001600160a01b03808616600483015260248201849052821660448201526064016103fc565b50505050565b61046e610ab2565b600980546001600160a01b0319166001600160a01b0392909216919091179055565b6104ab8383836040518060200160405280600081525061078f565b505050565b6001600160a01b0386166000908152600a602052604081205484146105075760405162461bcd60e51b815260206004820152600d60248201526c496e76616c6964206e6f6e636560981b60448201526064016103fc565b6001600160a01b0387166000908152600a6020526040812080549161052b8361178d565b919050555060006105ac8830878660405160200161054c94939291906117a6565b60408051601f1981840301815282825280516020918201207f19457468657265756d205369676e6564204d6573736167653a0a33320000000084830152603c8085019190915282518085039091018152605c909301909152815191012090565b6009549091506001600160a01b03166105c58286610adf565b6001600160a01b03161461060f5760405162461bcd60e51b8152602060048201526011602482015270496e76616c6964207369676e617475726560781b60448201526064016103fc565b60008660405160200161062291906117f3565b60405160208183030381529060405290506000610669898a61064385610b5e565b6040516020016106559392919061180f565b604051602081830303815290604052610b5e565b905060008160405160200161067e9190611939565b60405160208183030381529060405290506001600860008282546106a2919061197e565b90915550506008546106b48c82610cc3565b6106be8183610d28565b604080518281526001600160a01b038e1660208201527f0176f203df400d7bd5f1b1c9ef36c16709bf3b5d9fd35f000a6bae32393f66c3910160405180910390a19b9a5050505050505050505050565b600061030682610973565b60006001600160a01b038216610745576040516322718ad960e21b8152600060048201526024016103fc565b506001600160a01b031660009081526003602052604090205490565b610769610ab2565b6107736000610d78565b565b60606001805461031b9061173d565b6103d2338383610dca565b61079a8484846103d6565b61046084848484610e69565b60606107b182610973565b50600082815260066020526040812080546107cb9061173d565b80601f01602080910402602001604051908101604052809291908181526020018280546107f79061173d565b80156108445780601f1061081957610100808354040283529160200191610844565b820191906000526020600020905b81548152906001019060200180831161082757829003601f168201915b50505050509050600061086260408051602081019091526000815290565b90508051600003610874575092915050565b8151156108a657808260405160200161088e929190611991565b60405160208183030381529060405292505050919050565b6108af84610f92565b949350505050565b6001600160a01b03918216600090815260056020908152604080832093909416825291909152205460ff1690565b6108ed610ab2565b6001600160a01b03811661091757604051631e4fbdf760e01b8152600060048201526024016103fc565b61092081610d78565b50565b60006001600160e01b031982166380ac58cd60e01b148061095457506001600160e01b03198216635b5e139f60e01b145b8061030657506301ffc9a760e01b6001600160e01b0319831614610306565b6000818152600260205260408120546001600160a01b03168061030657604051637e27328960e01b8152600481018490526024016103fc565b6104ab8383836001611007565b6000828152600260205260408120546001600160a01b03908116908316156109e6576109e681848661110d565b6001600160a01b03811615610a2457610a03600085600080611007565b6001600160a01b038116600090815260036020526040902080546000190190555b6001600160a01b03851615610a53576001600160a01b0385166000908152600360205260409020805460010190555b60008481526002602052604080822080546001600160a01b0319166001600160a01b0389811691821790925591518793918516917fddf252ad1be2c89b69c2b068fc378daa952ba7f163c4a11628f55a4df523b3ef91a4949350505050565b6007546001600160a01b031633146107735760405163118cdaa760e01b81523360048201526024016103fc565b600080600080610aee85611171565b6040805160008152602081018083528b905260ff8516918101919091526060810183905260808101829052929550909350915060019060a0016020604051602081039080840390855afa158015610b49573d6000803e3d6000fd5b5050604051601f190151979650505050505050565b60608151600003610b7d57505060408051602081019091526000815290565b6000604051806060016040528060408152602001611b646040913990506000600384516002610bac919061197e565b610bb691906119c0565b610bc19060046119e2565b90506000610bd082602061197e565b67ffffffffffffffff811115610be857610be86114fd565b6040519080825280601f01601f191660200182016040528015610c12576020820181803683370190505b509050818152600183018586518101602084015b81831015610c7e576003830192508251603f8160121c168501518253600182019150603f81600c1c168501518253600182019150603f8160061c168501518253600182019150603f8116850151825350600101610c26565b600389510660018114610c985760028114610ca957610cb5565b613d3d60f01b600119830152610cb5565b603d60f81b6000198301525b509398975050505050505050565b6001600160a01b038216610ced57604051633250574960e11b8152600060048201526024016103fc565b6000610cfb838360006109b9565b90506001600160a01b038116156104ab576040516339e3563760e11b8152600060048201526024016103fc565b6000828152600660205260409020610d408282611a49565b506040518281527ff8e1a15aba9398e019f0b49df1a4fde98ee17ae345cb5f6b5e2c27f5033e8ce79060200160405180910390a15050565b600780546001600160a01b038381166001600160a01b0319831681179093556040519116919082907f8be0079c531659141344cd1fd0a4f28419497f9722a3daafe3b4186f6b6457e090600090a35050565b6001600160a01b038216610dfc57604051630b61174360e31b81526001600160a01b03831660048201526024016103fc565b6001600160a01b03838116600081815260056020908152604080832094871680845294825291829020805460ff191686151590811790915591519182527f17307eab39ab6107e8899845ad3d59bd9653f200f220920489ca2b5937696c31910160405180910390a3505050565b6001600160a01b0383163b1561046057604051630a85bd0160e11b81526001600160a01b0384169063150b7a0290610eab903390889087908790600401611b09565b6020604051808303816000875af1925050508015610ee6575060408051601f3d908101601f19168201909252610ee391810190611b46565b60015b610f4f573d808015610f14576040519150601f19603f3d011682016040523d82523d6000602084013e610f19565b606091505b508051600003610f4757604051633250574960e11b81526001600160a01b03851660048201526024016103fc565b805181602001fd5b6001600160e01b03198116630a85bd0160e11b14610f8b57604051633250574960e11b81526001600160a01b03851660048201526024016103fc565b5050505050565b6060610f9d82610973565b506000610fb560408051602081019091526000815290565b90506000815111610fd55760405180602001604052806000815250611000565b80610fdf846111e3565b604051602001610ff0929190611991565b6040516020818303038152906040525b9392505050565b808061101b57506001600160a01b03821615155b156110dd57600061102b84610973565b90506001600160a01b038316158015906110575750826001600160a01b0316816001600160a01b031614155b801561106a575061106881846108b7565b155b156110935760405163a9fbf51f60e01b81526001600160a01b03841660048201526024016103fc565b81156110db5783856001600160a01b0316826001600160a01b03167f8c5be1e5ebec7d5bd14f71427d1e84f3dd0314c0f7b2291e5b200ac8c7c3b92560405160405180910390a45b505b5050600090815260046020526040902080546001600160a01b0319166001600160a01b0392909216919091179055565b611118838383611276565b6104ab576001600160a01b03831661114657604051637e27328960e01b8152600481018290526024016103fc565b60405163177e802f60e01b81526001600160a01b0383166004820152602481018290526044016103fc565b600080600083516041146111c75760405162461bcd60e51b815260206004820152601860248201527f496e76616c6964207369676e6174757265206c656e677468000000000000000060448201526064016103fc565b5050506020810151604082015160609092015160001a92909190565b606060006111f0836112d9565b600101905060008167ffffffffffffffff811115611210576112106114fd565b6040519080825280601f01601f19166020018201604052801561123a576020820181803683370190505b5090508181016020015b600019016f181899199a1a9b1b9c1cb0b131b232b360811b600a86061a8153600a850494508461124457509392505050565b60006001600160a01b038316158015906108af5750826001600160a01b0316846001600160a01b031614806112b057506112b084846108b7565b806108af5750506000908152600460205260409020546001600160a01b03908116911614919050565b60008072184f03e93ff9f4daa797ed6e38ed64bf6a1f0160401b83106113185772184f03e93ff9f4daa797ed6e38ed64bf6a1f0160401b830492506040015b6d04ee2d6d415b85acef81000000008310611344576d04ee2d6d415b85acef8100000000830492506020015b662386f26fc10000831061136257662386f26fc10000830492506010015b6305f5e100831061137a576305f5e100830492506008015b612710831061138e57612710830492506004015b606483106113a0576064830492506002015b600a83106103065760010192915050565b6001600160e01b03198116811461092057600080fd5b6000602082840312156113d957600080fd5b8135611000816113b1565b60005b838110156113ff5781810151838201526020016113e7565b50506000910152565b600081518084526114208160208601602086016113e4565b601f01601f19169290920160200192915050565b6020815260006110006020830184611408565b60006020828403121561145957600080fd5b5035919050565b80356001600160a01b038116811461147757600080fd5b919050565b6000806040838503121561148f57600080fd5b61149883611460565b946020939093013593505050565b6000806000606084860312156114bb57600080fd5b6114c484611460565b92506114d260208501611460565b9150604084013590509250925092565b6000602082840312156114f457600080fd5b61100082611460565b634e487b7160e01b600052604160045260246000fd5b600082601f83011261152457600080fd5b813567ffffffffffffffff8082111561153f5761153f6114fd565b604051601f8301601f19908116603f01168101908282118183101715611567576115676114fd565b8160405283815286602085880101111561158057600080fd5b836020870160208301376000602085830101528094505050505092915050565b60008060008060008060c087890312156115b957600080fd5b6115c287611460565b9550602087013567ffffffffffffffff808211156115df57600080fd5b6115eb8a838b01611513565b9650604089013591508082111561160157600080fd5b61160d8a838b01611513565b955060608901359450608089013591508082111561162a57600080fd5b6116368a838b01611513565b935060a089013591508082111561164c57600080fd5b5061165989828a01611513565b9150509295509295509295565b6000806040838503121561167957600080fd5b61168283611460565b91506020830135801515811461169757600080fd5b809150509250929050565b600080600080608085870312156116b857600080fd5b6116c185611460565b93506116cf60208601611460565b925060408501359150606085013567ffffffffffffffff8111156116f257600080fd5b6116fe87828801611513565b91505092959194509250565b6000806040838503121561171d57600080fd5b61172683611460565b915061173460208401611460565b90509250929050565b600181811c9082168061175157607f821691505b60208210810361177157634e487b7160e01b600052602260045260246000fd5b50919050565b634e487b7160e01b600052601160045260246000fd5b60006001820161179f5761179f611777565b5060010190565b60006bffffffffffffffffffffffff19808760601b168352808660601b1660148401525083602883015282516117e38160488501602087016113e4565b9190910160480195945050505050565b600082516118058184602087016113e4565b9190910192915050565b693d913730b6b2911d101160b11b8152835160009061183581600a8501602089016113e4565b7f222c20226465736372697074696f6e223a20224f6e2d636861696e205a6f6469600a918401918201527f6163205369676e204e465473222c202261747472696275746573223a205b7b22602a8201527f74726169745f74797065223a20225a6f64696163205369676e222c202276616c604a820152653ab2911d101160d11b606a82015284516118cd8160708401602089016113e4565b7f227d5d2c2022696d616765223a2022646174613a696d6167652f7376672b786d60709290910191820152681b0ed8985cd94d8d0b60ba1b6090820152835161191d8160998401602088016113e4565b61227d60f01b60999290910191820152609b0195945050505050565b7f646174613a6170706c69636174696f6e2f6a736f6e3b6261736536342c00000081526000825161197181601d8501602087016113e4565b91909101601d0192915050565b8082018082111561030657610306611777565b600083516119a38184602088016113e4565b8351908301906119b78183602088016113e4565b01949350505050565b6000826119dd57634e487b7160e01b600052601260045260246000fd5b500490565b808202811582820484141761030657610306611777565b601f8211156104ab576000816000526020600020601f850160051c81016020861015611a225750805b601f850160051c820191505b81811015611a4157828155600101611a2e565b505050505050565b815167ffffffffffffffff811115611a6357611a636114fd565b611a7781611a71845461173d565b846119f9565b602080601f831160018114611aac5760008415611a945750858301515b600019600386901b1c1916600185901b178555611a41565b600085815260208120601f198616915b82811015611adb57888601518255948401946001909101908401611abc565b5085821015611af95787850151600019600388901b60f8161c191681555b5050505050600190811b01905550565b6001600160a01b0385811682528416602082015260408101839052608060608201819052600090611b3c90830184611408565b9695505050505050565b600060208284031215611b5857600080fd5b8151611000816113b156fe4142434445464748494a4b4c4d4e4f505152535455565758595a6162636465666768696a6b6c6d6e6f707172737475767778797a303132333435363738392b2fa2646970667358221220a7ad0cf0e1125a8961b23c85242a87519898f60d9388b5f1ff10c779d8c732be64736f6c63430008180033","linkReferences":{}},"methodIdentifiers":{"approve(address,uint256)":"095ea7b3","balanceOf(address)":"70a08231","dAppSigner()":"5f656203","getApproved(uint256)":"081812fc","isApprovedForAll(address,address)":"e985e9c5","mintNFT(address,string,string,uint256,bytes,string)":"52b29265","name()":"06fdde03","nonces(address)":"7ecebe00","owner()":"8da5cb5b","ownerOf(uint256)":"6352211e","renounceOwnership()":"715018a6","safeTransferFrom(address,address,uint256)":"42842e0e","safeTransferFrom(address,address,uint256,bytes)":"b88d4fde","setApprovalForAll(address,bool)":"a22cb465","setDAppSigner(address)":"4143c1aa","supportsInterface(bytes4)":"01ffc9a7","symbol()":"95d89b41","tokenURI(uint256)":"c87b56dd","transferFrom(address,address,uint256)":"23b872dd","transferOwnership(address)":"f2fde38b"},"id":1}